{
  "contractName": "PriceConsumerV3",
  "abi": [
    {
      "inputs": [],
      "stateMutability": "nonpayable",
      "type": "constructor"
    },
    {
      "inputs": [],
      "name": "getUSDConversion",
      "outputs": [
        {
          "internalType": "uint256",
          "name": "",
          "type": "uint256"
        }
      ],
      "stateMutability": "view",
      "type": "function"
    }
  ],
  "bytecode": "0x60806040526040518060400160405280600781526020017f72696e6b656279000000000000000000000000000000000000000000000000008152506000908051906020019061004f9291906101ee565b506305f5e100600155670de0b6b3a76400006002556002546802b5e3af16b188000061007b91906102ca565b60035534801561008a57600080fd5b50738a753747a1fa494ec906ce90e9f37563a8af630e60046040516100ae90610352565b908152602001604051809103902060006101000a81548173ffffffffffffffffffffffffffffffffffffffff021916908373ffffffffffffffffffffffffffffffffffffffff160217905550738a753747a1fa494ec906ce90e9f37563a8af630e600460405161011d906103b3565b908152602001604051809103902060006101000a81548173ffffffffffffffffffffffffffffffffffffffff021916908373ffffffffffffffffffffffffffffffffffffffff1602179055506004600060405161017a91906104bd565b908152602001604051809103902060009054906101000a900473ffffffffffffffffffffffffffffffffffffffff16600560006101000a81548173ffffffffffffffffffffffffffffffffffffffff021916908373ffffffffffffffffffffffffffffffffffffffff1602179055506104d4565b8280546101fa906103f7565b90600052602060002090601f01602090048101928261021c5760008555610263565b82601f1061023557805160ff1916838001178555610263565b82800160010185558215610263579182015b82811115610262578251825591602001919060010190610247565b5b5090506102709190610274565b5090565b5b8082111561028d576000816000905550600101610275565b5090565b6000819050919050565b7f4e487b7100000000000000000000000000000000000000000000000000000000600052601260045260246000fd5b60006102d582610291565b91506102e083610291565b9250826102f0576102ef61029b565b5b828204905092915050565b600081905092915050565b7f6b6f76616e000000000000000000000000000000000000000000000000000000600082015250565b600061033c6005836102fb565b915061034782610306565b600582019050919050565b600061035d8261032f565b9150819050919050565b7f72696e6b65627900000000000000000000000000000000000000000000000000600082015250565b600061039d6007836102fb565b91506103a882610367565b600782019050919050565b60006103be82610390565b9150819050919050565b7f4e487b7100000000000000000000000000000000000000000000000000000000600052602260045260246000fd5b6000600282049050600182168061040f57607f821691505b60208210811415610423576104226103c8565b5b50919050565b60008190508160005260206000209050919050565b6000815461044b816103f7565b61045581866102fb565b945060018216600081146104705760018114610481576104b4565b60ff198316865281860193506104b4565b61048a85610429565b60005b838110156104ac5781548189015260018201915060208101905061048d565b838801955050505b50505092915050565b60006104c9828461043e565b915081905092915050565b6102f9806104e36000396000f3fe608060405234801561001057600080fd5b506004361061002b5760003560e01c806325bc1d5614610030575b600080fd5b61003861004e565b6040516100459190610124565b60405180910390f35b600060015461005b61006a565b610065919061016e565b905090565b600080600560009054906101000a900473ffffffffffffffffffffffffffffffffffffffff1673ffffffffffffffffffffffffffffffffffffffff1663feaf968c6040518163ffffffff1660e01b815260040160a060405180830381865afa1580156100da573d6000803e3d6000fd5b505050506040513d601f19601f820116820180604052508101906100fe9190610248565b5050509150508091505090565b6000819050919050565b61011e8161010b565b82525050565b60006020820190506101396000830184610115565b92915050565b7f4e487b7100000000000000000000000000000000000000000000000000000000600052601260045260246000fd5b60006101798261010b565b91506101848361010b565b9250826101945761019361013f565b5b828204905092915050565b600080fd5b600069ffffffffffffffffffff82169050919050565b6101c3816101a4565b81146101ce57600080fd5b50565b6000815190506101e0816101ba565b92915050565b6000819050919050565b6101f9816101e6565b811461020457600080fd5b50565b600081519050610216816101f0565b92915050565b6102258161010b565b811461023057600080fd5b50565b6000815190506102428161021c565b92915050565b600080600080600060a086880312156102645761026361019f565b5b6000610272888289016101d1565b955050602061028388828901610207565b945050604061029488828901610233565b93505060606102a588828901610233565b92505060806102b6888289016101d1565b915050929550929590935056fea2646970667358221220384892a2f8eff793499d7f851df470e5d8d444dbb6943aa2b0623cf498c1b7f364736f6c634300080a0033",
  "immutableReferences": {},
  "source": "// SPDX-License-Identifier: MIT\npragma solidity ^0.8.7;\n\nimport \"@chainlink/contracts/src/v0.8/interfaces/AggregatorV3Interface.sol\";\n\ncontract PriceConsumerV3 {\n    string NETWORK = \"rinkeby\";\n    uint256 internal GWEI_DECIMAL = 100000000;\n    uint256 internal WEI_DECIMAL = 1000000000000000000;\n    uint256 internal minimum = (50 * 10**18) / WEI_DECIMAL;\n\n    mapping(string => address) private networks;\n\n    AggregatorV3Interface internal priceFeed;\n\n    /**\n     * Network: rinkeby\n     * Aggregator: ETH/USD\n     * Address: 0x8A753747A1Fa494EC906cE90E9f37563A8AF630e\n     */\n    constructor() {\n        networks[\"kovan\"] = 0x8A753747A1Fa494EC906cE90E9f37563A8AF630e;\n        networks[\"rinkeby\"] = 0x8A753747A1Fa494EC906cE90E9f37563A8AF630e;\n\n        priceFeed = AggregatorV3Interface(networks[NETWORK]);\n    }\n\n    /**\n     * Returns the latest price\n     */\n    function getLatestPrice() internal view returns (int256) {\n        (\n            ,\n            // uint80 roundID,\n            int256 price, // uint startedAt, // uint timeStamp, // uint80 answeredInRound\n            ,\n            ,\n\n        ) = priceFeed.latestRoundData();\n        return price;\n    }\n\n    function getConversionRate(uint256 amount) internal view returns (uint256) {\n        uint256 price = uint256(getLatestPrice()) / GWEI_DECIMAL;\n        return (price * amount) / WEI_DECIMAL;\n    }\n\n    function getUSDConversion() public view returns (uint256) {\n        return uint256(getLatestPrice()) / GWEI_DECIMAL;\n    }\n}\n",
  "sourcePath": "/Users/daniellicienestevez/Documents/Projects/smart-contracts-learning/smart-contract/app/src/blockchain/contracts/PriceConsumerV3.sol",
  "compiler": {
    "name": "solc",
    "version": "0.8.10+commit.fc410830.Emscripten.clang"
  },
  "schemaVersion": "3.4.3",
  "updatedAt": "2021-12-26T04:45:27.143Z",
  "devdoc": {
    "kind": "dev",
    "methods": {},
    "version": 1
  },
  "userdoc": {
    "kind": "user",
    "methods": {
      "constructor": {
        "notice": "Network: rinkeby Aggregator: ETH/USD Address: 0x8A753747A1Fa494EC906cE90E9f37563A8AF630e"
      }
    },
    "version": 1
  }
}