{
  "contractName": "PriceConsumerV3",
  "abi": [
    {
      "inputs": [
        {
          "internalType": "address",
          "name": "_account",
          "type": "address"
        }
      ],
      "stateMutability": "nonpayable",
      "type": "constructor"
    },
    {
      "inputs": [],
      "name": "getLatestPrice",
      "outputs": [
        {
          "internalType": "int256",
          "name": "",
          "type": "int256"
        }
      ],
      "stateMutability": "view",
      "type": "function"
    },
    {
      "inputs": [],
      "name": "getUSDConversion",
      "outputs": [
        {
          "internalType": "uint256",
          "name": "",
          "type": "uint256"
        }
      ],
      "stateMutability": "view",
      "type": "function"
    }
  ],
  "bytecode": "0x60806040526305f5e100600055670de0b6b3a76400006001556001546802b5e3af16b18800008161002c57fe5b0460025534801561003c57600080fd5b506040516102623803806102628339818101604052602081101561005f57600080fd5b810190808051906020019092919050505080600360006101000a81548173ffffffffffffffffffffffffffffffffffffffff021916908373ffffffffffffffffffffffffffffffffffffffff160217905550506101a1806100c16000396000f3fe608060405234801561001057600080fd5b50600436106100365760003560e01c806325bc1d561461003b5780638e15f47314610059575b600080fd5b610043610077565b6040518082815260200191505060405180910390f35b610061610090565b6040518082815260200191505060405180910390f35b60008054610083610090565b8161008a57fe5b04905090565b600080600360009054906101000a900473ffffffffffffffffffffffffffffffffffffffff1673ffffffffffffffffffffffffffffffffffffffff1663feaf968c6040518163ffffffff1660e01b815260040160a06040518083038186803b1580156100fb57600080fd5b505afa15801561010f573d6000803e3d6000fd5b505050506040513d60a081101561012557600080fd5b810190808051906020019092919080519060200190929190805190602001909291908051906020019092919080519060200190929190505050505050915050809150509056fea26469706673582212208e8e555fe3c4ea0aadda039a965a91e60beb9a1e3a33800116eb1334af825ed764736f6c63430006000033",
  "source": "// SPDX-License-Identifier: MIT\npragma solidity >=0.4.22 <0.9.0;\n\nimport \"@chainlink/contracts/src/v0.6/interfaces/AggregatorV3Interface.sol\";\n\ncontract PriceConsumerV3 {\n\n    uint256 internal GWEI_DECIMAL = 100000000;\n    uint256 internal WEI_DECIMAL = 1000000000000000000;\n    uint256 internal minimum = (50 * 10**18) / WEI_DECIMAL;\n\n    AggregatorV3Interface internal priceFeed;\n\n    /**\n     * Network: rinkeby\n     * Aggregator: ETH/USD\n     * Address: 0x8A753747A1Fa494EC906cE90E9f37563A8AF630e\n     */\n    constructor(address _account) public {\n        priceFeed = AggregatorV3Interface(_account);\n    }\n\n    /**\n     * Returns the latest price\n     */\n    function getLatestPrice() public view returns (int256) {\n        (\n            ,\n            // uint80 roundID,\n            int256 price, // uint startedAt, // uint timeStamp, // uint80 answeredInRound\n            ,\n            ,\n\n        ) = priceFeed.latestRoundData();\n        return price;\n    }\n\n    function getConversionRate(uint256 amount) internal view returns (uint256) {\n        uint256 price = uint256(getLatestPrice()) / GWEI_DECIMAL;\n        return (price * amount) / WEI_DECIMAL;\n    }\n\n    function getUSDConversion() public view returns (uint256) {\n        return uint256(getLatestPrice()) / GWEI_DECIMAL;\n    }\n}\n",
  "sourcePath": "/Users/daniellicienestevez/Documents/Projects/smart-contracts-learning/smart-contract/app/src/blockchain/contracts/PriceConsumerV3.sol",
  "compiler": {
    "name": "solc",
    "version": "0.6.0+commit.26b70077.Emscripten.clang"
  },
  "schemaVersion": "3.4.3",
  "updatedAt": "2021-12-26T21:36:17.908Z",
  "devdoc": {
    "methods": {}
  },
  "userdoc": {
    "methods": {
      "constructor": "Network: rinkeby Aggregator: ETH/USD Address: 0x8A753747A1Fa494EC906cE90E9f37563A8AF630e",
      "getLatestPrice()": {
        "notice": "Returns the latest price"
      }
    }
  }
}