{
  "contractName": "SimpleStorage",
  "abi": [
    {
      "inputs": [],
      "stateMutability": "nonpayable",
      "type": "constructor"
    },
    {
      "inputs": [
        {
          "internalType": "uint256",
          "name": "",
          "type": "uint256"
        }
      ],
      "name": "funders",
      "outputs": [
        {
          "internalType": "address",
          "name": "",
          "type": "address"
        }
      ],
      "stateMutability": "view",
      "type": "function",
      "constant": true
    },
    {
      "inputs": [],
      "name": "getLatestPrice",
      "outputs": [
        {
          "internalType": "int256",
          "name": "",
          "type": "int256"
        }
      ],
      "stateMutability": "view",
      "type": "function",
      "constant": true
    },
    {
      "inputs": [],
      "name": "getUSDConversion",
      "outputs": [
        {
          "internalType": "uint256",
          "name": "",
          "type": "uint256"
        }
      ],
      "stateMutability": "view",
      "type": "function",
      "constant": true
    },
    {
      "inputs": [
        {
          "internalType": "address",
          "name": "",
          "type": "address"
        }
      ],
      "name": "users",
      "outputs": [
        {
          "internalType": "uint256",
          "name": "",
          "type": "uint256"
        }
      ],
      "stateMutability": "view",
      "type": "function",
      "constant": true
    },
    {
      "inputs": [],
      "name": "fundMe",
      "outputs": [],
      "stateMutability": "payable",
      "type": "function",
      "payable": true
    },
    {
      "inputs": [],
      "name": "withdraw",
      "outputs": [],
      "stateMutability": "payable",
      "type": "function",
      "payable": true
    },
    {
      "inputs": [],
      "name": "getTotal",
      "outputs": [
        {
          "internalType": "uint256",
          "name": "",
          "type": "uint256"
        }
      ],
      "stateMutability": "view",
      "type": "function",
      "constant": true
    }
  ],
  "bytecode": "0x60806040526305f5e100600055670de0b6b3a76400006001556001546802b5e3af16b18800008161002c57fe5b04600255738a753747a1fa494ec906ce90e9f37563a8af630e600760006101000a81548173ffffffffffffffffffffffffffffffffffffffff021916908373ffffffffffffffffffffffffffffffffffffffff160217905550738a753747a1fa494ec906ce90e9f37563a8af630e600860006101000a81548173ffffffffffffffffffffffffffffffffffffffff021916908373ffffffffffffffffffffffffffffffffffffffff1602179055503480156100e657600080fd5b50600860009054906101000a900473ffffffffffffffffffffffffffffffffffffffff1680600360006101000a81548173ffffffffffffffffffffffffffffffffffffffff021916908373ffffffffffffffffffffffffffffffffffffffff1602179055505033600560006101000a81548173ffffffffffffffffffffffffffffffffffffffff021916908373ffffffffffffffffffffffffffffffffffffffff16021790555061072a8061019c6000396000f3fe6080604052600436106100705760003560e01c80638e15f4731161004e5780638e15f473146100d5578063a87430ba14610100578063b6a324e014610165578063dc0d3dff1461016f57610070565b806325bc1d56146100755780633ccfd60b146100a0578063775a25e3146100aa575b600080fd5b34801561008157600080fd5b5061008a6101ea565b6040518082815260200191505060405180910390f35b6100a8610203565b005b3480156100b657600080fd5b506100bf610390565b6040518082815260200191505060405180910390f35b3480156100e157600080fd5b506100ea610398565b6040518082815260200191505060405180910390f35b34801561010c57600080fd5b5061014f6004803603602081101561012357600080fd5b81019080803573ffffffffffffffffffffffffffffffffffffffff169060200190929190505050610473565b6040518082815260200191505060405180910390f35b61016d61048b565b005b34801561017b57600080fd5b506101a86004803603602081101561019257600080fd5b81019080803590602001909291905050506105bd565b604051808273ffffffffffffffffffffffffffffffffffffffff1673ffffffffffffffffffffffffffffffffffffffff16815260200191505060405180910390f35b600080546101f6610398565b816101fd57fe5b04905090565b600560009054906101000a900473ffffffffffffffffffffffffffffffffffffffff1673ffffffffffffffffffffffffffffffffffffffff163373ffffffffffffffffffffffffffffffffffffffff161461025d57600080fd5b3373ffffffffffffffffffffffffffffffffffffffff166108fc479081150290604051600060405180830381858888f193505050501580156102a3573d6000803e3d6000fd5b5060008090505b600680549050811115610346576000600682815481106102c657fe5b9060005260206000200160009054906101000a900473ffffffffffffffffffffffffffffffffffffffff1690506000600460008373ffffffffffffffffffffffffffffffffffffffff1673ffffffffffffffffffffffffffffffffffffffff168152602001908152602001600020819055505080806001019150506102aa565b5060006040519080825280602002602001820160405280156103775781602001602082028038833980820191505090505b506006908051906020019061038d929190610627565b50565b600047905090565b600080600360009054906101000a900473ffffffffffffffffffffffffffffffffffffffff1673ffffffffffffffffffffffffffffffffffffffff1663feaf968c6040518163ffffffff1660e01b815260040160a06040518083038186803b15801561040357600080fd5b505afa158015610417573d6000803e3d6000fd5b505050506040513d60a081101561042d57600080fd5b8101908080519060200190929190805190602001909291908051906020019092919080519060200190929190805190602001909291905050505050509150508091505090565b60046020528060005260406000206000915090505481565b600254610497346105f9565b101561050b576040517f08c379a000000000000000000000000000000000000000000000000000000000815260040180806020018281038252601a8152602001807f4e65656420746f207370656e64206d6f7265204554482021212100000000000081525060200191505060405180910390fd5b34600460003373ffffffffffffffffffffffffffffffffffffffff1673ffffffffffffffffffffffffffffffffffffffff168152602001908152602001600020600082825401925050819055506006339080600181540180825580915050600190039060005260206000200160009091909190916101000a81548173ffffffffffffffffffffffffffffffffffffffff021916908373ffffffffffffffffffffffffffffffffffffffff160217905550565b600681815481106105ca57fe5b906000526020600020016000915054906101000a900473ffffffffffffffffffffffffffffffffffffffff1681565b600080600054610607610398565b8161060e57fe5b0490506001548382028161061e57fe5b04915050919050565b8280548282559060005260206000209081019282156106a0579160200282015b8281111561069f5782518260006101000a81548173ffffffffffffffffffffffffffffffffffffffff021916908373ffffffffffffffffffffffffffffffffffffffff16021790555091602001919060010190610647565b5b5090506106ad91906106b1565b5090565b6106f191905b808211156106ed57600081816101000a81549073ffffffffffffffffffffffffffffffffffffffff0219169055506001016106b7565b5090565b9056fea2646970667358221220484c6c17b64a7b1f0a76718d1cd02bc0b7fa090b948b4034f10ebdd3dbcdbeda64736f6c63430006000033",
  "source": "// SPDX-License-Identifier: MIT\n\npragma solidity >=0.4.22 <0.9.0;\n\nimport \"./PriceConsumerV3.sol\";\n\ncontract SimpleStorage is PriceConsumerV3 {\n    mapping(address => uint256) public users;\n    address owner;\n    address[] public funders;\n\n    address kovan = 0x8A753747A1Fa494EC906cE90E9f37563A8AF630e;\n    address rinkeby = 0x8A753747A1Fa494EC906cE90E9f37563A8AF630e;\n\n    constructor() public PriceConsumerV3(rinkeby) {\n        owner = msg.sender;\n    }\n\n    function fundMe() public payable {\n        require(\n            getConversionRate(uint256(msg.value)) >= minimum,\n            \"Need to spend more ETH !!!\"\n        );\n        users[msg.sender] += msg.value;\n        funders.push(msg.sender);\n    }\n\n    modifier onlyOwner() {\n        require(msg.sender == owner); // ONLY OWNER CAN WITHDRAW.\n        _;\n    }\n\n    function withdraw() public payable onlyOwner {\n        payable(msg.sender).transfer(address(this).balance);\n\n        for (uint256 index = 0; index > funders.length; index++) {\n            address funder = funders[index];\n            users[funder] = 0;\n        }\n\n        funders = new address[](0);\n    }\n\n    function getTotal() public view returns (uint256) {\n        return address(this).balance;\n    }\n}\n",
  "sourcePath": "/Users/daniellicienestevez/Documents/Projects/smart-contracts-learning/smart-contract/app/src/blockchain/contracts/SimpleStorage.sol",
  "compiler": {
    "name": "solc",
    "version": "0.6.0+commit.26b70077.Emscripten.clang"
  },
  "schemaVersion": "3.4.3",
  "updatedAt": "2021-12-26T21:52:34.908Z",
  "networkType": "ethereum",
  "devdoc": {
    "methods": {}
  },
  "userdoc": {
    "methods": {
      "getLatestPrice()": {
        "notice": "Returns the latest price"
      }
    }
  }
}