{
  "contractName": "SimpleStorage",
  "abi": [
    {
      "inputs": [],
      "stateMutability": "nonpayable",
      "type": "constructor"
    },
    {
      "inputs": [
        {
          "internalType": "uint256",
          "name": "",
          "type": "uint256"
        }
      ],
      "name": "funders",
      "outputs": [
        {
          "internalType": "address",
          "name": "",
          "type": "address"
        }
      ],
      "stateMutability": "view",
      "type": "function",
      "constant": true
    },
    {
      "inputs": [],
      "name": "getUSDConversion",
      "outputs": [
        {
          "internalType": "uint256",
          "name": "",
          "type": "uint256"
        }
      ],
      "stateMutability": "view",
      "type": "function",
      "constant": true
    },
    {
      "inputs": [
        {
          "internalType": "address",
          "name": "",
          "type": "address"
        }
      ],
      "name": "users",
      "outputs": [
        {
          "internalType": "uint256",
          "name": "",
          "type": "uint256"
        }
      ],
      "stateMutability": "view",
      "type": "function",
      "constant": true
    },
    {
      "inputs": [],
      "name": "fundMe",
      "outputs": [],
      "stateMutability": "payable",
      "type": "function",
      "payable": true
    },
    {
      "inputs": [],
      "name": "withdraw",
      "outputs": [],
      "stateMutability": "payable",
      "type": "function",
      "payable": true
    },
    {
      "inputs": [],
      "name": "getTotal",
      "outputs": [
        {
          "internalType": "uint256",
          "name": "",
          "type": "uint256"
        }
      ],
      "stateMutability": "view",
      "type": "function",
      "constant": true
    }
  ],
  "bytecode": "0x60806040526040518060400160405280600781526020017f72696e6b6562790000000000000000000000000000000000000000000000000081525060009080519060200190620000519291906200023b565b506305f5e100600155670de0b6b3a76400006002556002546802b5e3af16b18800006200007f919062000324565b6003553480156200008f57600080fd5b50738a753747a1fa494ec906ce90e9f37563a8af630e6004604051620000b590620003b7565b908152602001604051809103902060006101000a81548173ffffffffffffffffffffffffffffffffffffffff021916908373ffffffffffffffffffffffffffffffffffffffff160217905550738a753747a1fa494ec906ce90e9f37563a8af630e600460405162000126906200041e565b908152602001604051809103902060006101000a81548173ffffffffffffffffffffffffffffffffffffffff021916908373ffffffffffffffffffffffffffffffffffffffff160217905550600460006040516200018591906200053a565b908152602001604051809103902060009054906101000a900473ffffffffffffffffffffffffffffffffffffffff16600560006101000a81548173ffffffffffffffffffffffffffffffffffffffff021916908373ffffffffffffffffffffffffffffffffffffffff16021790555033600760006101000a81548173ffffffffffffffffffffffffffffffffffffffff021916908373ffffffffffffffffffffffffffffffffffffffff16021790555062000553565b828054620002499062000464565b90600052602060002090601f0160209004810192826200026d5760008555620002b9565b82601f106200028857805160ff1916838001178555620002b9565b82800160010185558215620002b9579182015b82811115620002b85782518255916020019190600101906200029b565b5b509050620002c89190620002cc565b5090565b5b80821115620002e7576000816000905550600101620002cd565b5090565b6000819050919050565b7f4e487b7100000000000000000000000000000000000000000000000000000000600052601260045260246000fd5b60006200033182620002eb565b91506200033e83620002eb565b925082620003515762000350620002f5565b5b828204905092915050565b600081905092915050565b7f6b6f76616e000000000000000000000000000000000000000000000000000000600082015250565b60006200039f6005836200035c565b9150620003ac8262000367565b600582019050919050565b6000620003c48262000390565b9150819050919050565b7f72696e6b65627900000000000000000000000000000000000000000000000000600082015250565b6000620004066007836200035c565b91506200041382620003ce565b600782019050919050565b60006200042b82620003f7565b9150819050919050565b7f4e487b7100000000000000000000000000000000000000000000000000000000600052602260045260246000fd5b600060028204905060018216806200047d57607f821691505b6020821081141562000494576200049362000435565b5b50919050565b60008190508160005260206000209050919050565b60008154620004be8162000464565b620004ca81866200035c565b94506001821660008114620004e85760018114620004fa5762000531565b60ff1983168652818601935062000531565b62000505856200049a565b60005b83811015620005295781548189015260018201915060208101905062000508565b838801955050505b50505092915050565b6000620005488284620004af565b915081905092915050565b610adc80620005636000396000f3fe6080604052600436106100555760003560e01c806325bc1d561461005a5780633ccfd60b14610085578063775a25e31461008f578063a87430ba146100ba578063b6a324e0146100f7578063dc0d3dff14610101575b600080fd5b34801561006657600080fd5b5061006f61013e565b60405161007c919061060d565b60405180910390f35b61008d61015a565b005b34801561009b57600080fd5b506100a461030a565b6040516100b1919061060d565b60405180910390f35b3480156100c657600080fd5b506100e160048036038101906100dc919061068b565b610312565b6040516100ee919061060d565b60405180910390f35b6100ff61032a565b005b34801561010d57600080fd5b50610128600480360381019061012391906106e4565b610432565b6040516101359190610720565b60405180910390f35b600060015461014b610471565b6101559190610799565b905090565b600760009054906101000a900473ffffffffffffffffffffffffffffffffffffffff1673ffffffffffffffffffffffffffffffffffffffff163373ffffffffffffffffffffffffffffffffffffffff16146101b457600080fd5b3373ffffffffffffffffffffffffffffffffffffffff166108fc479081150290604051600060405180830381858888f193505050501580156101fa573d6000803e3d6000fd5b5060005b6008805490508111156102a757600060088281548110610221576102206107ca565b5b9060005260206000200160009054906101000a900473ffffffffffffffffffffffffffffffffffffffff1690506000600660008373ffffffffffffffffffffffffffffffffffffffff1673ffffffffffffffffffffffffffffffffffffffff1681526020019081526020016000208190555050808061029f906107f9565b9150506101fe565b50600067ffffffffffffffff8111156102c3576102c2610842565b5b6040519080825280602002602001820160405280156102f15781602001602082028036833780820191505090505b506008908051906020019061030792919061054d565b50565b600047905090565b60066020528060005260406000206000915090505481565b60035461033634610512565b1015610377576040517f08c379a000000000000000000000000000000000000000000000000000000000815260040161036e906108ce565b60405180910390fd5b34600660003373ffffffffffffffffffffffffffffffffffffffff1673ffffffffffffffffffffffffffffffffffffffff16815260200190815260200160002060008282546103c691906108ee565b925050819055506008339080600181540180825580915050600190039060005260206000200160009091909190916101000a81548173ffffffffffffffffffffffffffffffffffffffff021916908373ffffffffffffffffffffffffffffffffffffffff160217905550565b6008818154811061044257600080fd5b906000526020600020016000915054906101000a900473ffffffffffffffffffffffffffffffffffffffff1681565b600080600560009054906101000a900473ffffffffffffffffffffffffffffffffffffffff1673ffffffffffffffffffffffffffffffffffffffff1663feaf968c6040518163ffffffff1660e01b815260040160a060405180830381865afa1580156104e1573d6000803e3d6000fd5b505050506040513d601f19601f8201168201806040525081019061050591906109d1565b5050509150508091505090565b600080600154610520610471565b61052a9190610799565b9050600254838261053b9190610a4c565b6105459190610799565b915050919050565b8280548282559060005260206000209081019282156105c6579160200282015b828111156105c55782518260006101000a81548173ffffffffffffffffffffffffffffffffffffffff021916908373ffffffffffffffffffffffffffffffffffffffff1602179055509160200191906001019061056d565b5b5090506105d391906105d7565b5090565b5b808211156105f05760008160009055506001016105d8565b5090565b6000819050919050565b610607816105f4565b82525050565b600060208201905061062260008301846105fe565b92915050565b600080fd5b600073ffffffffffffffffffffffffffffffffffffffff82169050919050565b60006106588261062d565b9050919050565b6106688161064d565b811461067357600080fd5b50565b6000813590506106858161065f565b92915050565b6000602082840312156106a1576106a0610628565b5b60006106af84828501610676565b91505092915050565b6106c1816105f4565b81146106cc57600080fd5b50565b6000813590506106de816106b8565b92915050565b6000602082840312156106fa576106f9610628565b5b6000610708848285016106cf565b91505092915050565b61071a8161064d565b82525050565b60006020820190506107356000830184610711565b92915050565b7f4e487b7100000000000000000000000000000000000000000000000000000000600052601260045260246000fd5b7f4e487b7100000000000000000000000000000000000000000000000000000000600052601160045260246000fd5b60006107a4826105f4565b91506107af836105f4565b9250826107bf576107be61073b565b5b828204905092915050565b7f4e487b7100000000000000000000000000000000000000000000000000000000600052603260045260246000fd5b6000610804826105f4565b91507fffffffffffffffffffffffffffffffffffffffffffffffffffffffffffffffff8214156108375761083661076a565b5b600182019050919050565b7f4e487b7100000000000000000000000000000000000000000000000000000000600052604160045260246000fd5b600082825260208201905092915050565b7f4e65656420746f207370656e64206d6f72652045544820212121000000000000600082015250565b60006108b8601a83610871565b91506108c382610882565b602082019050919050565b600060208201905081810360008301526108e7816108ab565b9050919050565b60006108f9826105f4565b9150610904836105f4565b9250827fffffffffffffffffffffffffffffffffffffffffffffffffffffffffffffffff038211156109395761093861076a565b5b828201905092915050565b600069ffffffffffffffffffff82169050919050565b61096381610944565b811461096e57600080fd5b50565b6000815190506109808161095a565b92915050565b6000819050919050565b61099981610986565b81146109a457600080fd5b50565b6000815190506109b681610990565b92915050565b6000815190506109cb816106b8565b92915050565b600080600080600060a086880312156109ed576109ec610628565b5b60006109fb88828901610971565b9550506020610a0c888289016109a7565b9450506040610a1d888289016109bc565b9350506060610a2e888289016109bc565b9250506080610a3f88828901610971565b9150509295509295909350565b6000610a57826105f4565b9150610a62836105f4565b9250817fffffffffffffffffffffffffffffffffffffffffffffffffffffffffffffffff0483118215151615610a9b57610a9a61076a565b5b82820290509291505056fea2646970667358221220d8d3c8f32ace204ae93c90434e73a168fb69c9a97a1e84d2e09ad38c928d3e9b64736f6c634300080a0033",
  "immutableReferences": {},
  "source": "// SPDX-License-Identifier: MIT\n\npragma solidity >=0.7.2;\n\nimport \"./PriceConsumerV3.sol\";\n\ncontract SimpleStorage is PriceConsumerV3 {\n\n    mapping(address => uint256) public users;\n    address owner;\n    address[] public funders;\n\n    constructor() {\n        owner = msg.sender;\n    }\n\n    function fundMe() public payable {\n        require(\n            getConversionRate(uint256(msg.value)) >= minimum,\n            \"Need to spend more ETH !!!\"\n        );\n        users[msg.sender] += msg.value;\n        funders.push(msg.sender);\n    }\n\n    modifier onlyOwner() {\n        require(msg.sender == owner); // ONLY OWNER CAN WITHDRAW.\n        _;\n    }\n\n    function withdraw() public payable onlyOwner {\n        payable(msg.sender).transfer(address(this).balance);\n\n        for (uint256 index = 0; index > funders.length; index++) {\n            address funder = funders[index];\n            users[funder] = 0;\n        }\n\n        funders = new address[](0);\n    }\n\n    function getTotal() public view returns (uint256) {\n        return address(this).balance;\n    }\n}\n",
  "sourcePath": "/Users/daniellicienestevez/Documents/Projects/smart-contracts-learning/smart-contract/app/src/blockchain/contracts/SimpleStorage.sol",
  "compiler": {
    "name": "solc",
    "version": "0.8.10+commit.fc410830.Emscripten.clang"
  },
  "schemaVersion": "3.4.3",
  "updatedAt": "2021-12-26T04:46:14.970Z",
  "networkType": "ethereum",
  "devdoc": {
    "kind": "dev",
    "methods": {},
    "version": 1
  },
  "userdoc": {
    "kind": "user",
    "methods": {},
    "version": 1
  }
}